:1000000000308A00A52800002130840083130008F6
:10001000031918280530F800F701F70B0D28F80B25
:100020000C282E30F700F70B13281628800B0A280F
:100030000034051E1928FF308600C830A1000420B6
:10004000051A20288601C830A10004208A110A124E
:10005000CF28851D29280614861006158611061638
:10006000861206178613851933288601C830A10029
:1000700004208A110A12D328851A43280130A007C8
:10008000C830A1000420200B4D280614861006114C
:10009000861106128612061386132008023C031DE1
:1000A00059280610861406118611061286120613A8
:1000B00086132008033C031D6528061086100615CC
:1000C000861106128612061386132008043C031DAF
:1000D0007128061086100611861506128612061360
:1000E00086132008053C031D7D2806108610061186
:1000F000861106168612061386132008063C031D79
:100100008928061086100611861106128616061317
:1001100086132008073C031D95280610861006113B
:10012000861106128612061786132008083C031D46
:10013000A2280610861006118611061286120613D2
:100140008617A0018A110A12D728840183131F3051
:1001500083058316031787110C3003139900E230CF
:100160009800D03083129800831603170908C0390D
:10017000890003131F129F12003003178800831297
:100180008701880189010313A001FF3083168500D0
:100190000030860083128601051AD0281928CC2841
:1001A0008519D4282928D028851AD7283C28CC2876
:0201B0006300EA
:04400E00F22FFF3F4F
:00000001FF
;PIC16F887
